:03000000020006F5
:03005F0002000399
:0300030002006296
:20006200C292750CFF750DFF75824E1201C69001F412008CD292750C00750D0075824E122A
:0A00820001C69000FA12008C80D62F
:20008C00AE82AF83AC894304018C89758CFC758A66D28C7C007D00308D0D0CBC00010DC245
:0F00AC008D758CFC758A66C3EC9EED9F40E92232
:2000BB00C2970000D296D2970000C29622C2970000C296D2970000D29622C297C29600002C
:2000DB00D29722C2970000D2960000D29722C297D2960000D2970000A296E433F58222AF6D
:2000FB00827E00C29700008F047D008EF005F08006EC2CFCED33FDD5F0F7EC235401FD2411
:20011B00FF92960000D2970EBE080040D6227F007E00C297D29600008F05ED2DFDD2970056
:20013B0000A296E433FC4DFF0EBE080040E48F8222AF82C0071200BBD0078F82C00712005C
:20015B00FA1200E9AE82D007BE010475820122850882C0071200FA1200E9AE82D007BE0108
:20017B000475820222C0071200BBD0074307018F821200FA1200E9AF82BF01047582032266
:20019B00AD09AE0AAF0BC007C006C005120129AC82D005D006D0078D828E838FF0EC12023F
:2001BB000B1200DE1200C875820022AF82C0071200BBD0078F821200FA1200E9AF82BF0191
:2001DB000475820122850C821200FA1200E9AF82BF010475820222850D821200FA1200E9A1
:1001FB00AF82BF0104758203221200C875820022F0
:06003500E478FFF6D8FD9F
:200013007900E94400601B7A0090022A780175A000E493F2A308B8000205A0D9F4DAF27567
:02003300A0FF2C
:1B020B0020F71130F6138883A88220F509F6A8837583002280FEF280F5F022F2
:20003B007800E84400600A790175A000E4F309D8FC7800E84400600C7900900001E4F0A3C3
:04005B00D8FCD9FAFA
:0D00060075810E120226E5826003020003E0
:0402260075820022BB
:00000001FF
