:03000000020006F5
:03006E000200038A
:0300030002007187
:200071007F007E28C007C0061201B8120507D2969007BC75F08012031C1202EA9007C37536
:20009100F08012031CD006D0077D12209617C007C006C005120497858208858309D005D0E1
:2000B10006D0078006750819750900D200C007C006C0051201AD750F067582001202FCD073
:2000D100058D017A0089828A83C0051205FDA982AA83D005D006D00789005300F0E4C8C4FB
:2000F100540F68C8540FC868C830E30244F0743028F582C007C006C005C002C00112025B31
:20011100D001D002740F592430F58212025B75823212025B8508828509831205B2AB82ACBB
:2001310083750F06758201C004C0031202FCD003D004D005D006D0078B015301F0E4C9C4A8
:20015100540F69C9540FC969C930E30244F0743029F582C007C006C005C004C00312025BC6
:20017100D003D004740F5B2430F58212025B75824312025BD005D006D007BF3B037F000EFA
:1C019100BE3B037E000D0F9003E8C007C006C005120644D005D006D00702009C73
:0E07BC0054696D653A200054656D703A200056
:0F005F00750A00750B01750C02750D04750E08FE
:2001AD00300004750E0822750E002290138812066F7582021201DC7582281201DC75820C01
:2001CD001201DC7582011201DC7582800201DCAF8274F05FFEAD0D4205E50E4DF50A850A25
:2001ED0014850A1575824EC007C00612045290000112066FD006E50E4EF50A850A14850AA0
:20020D001575824E12045290000112066FD007EFC454F0FF5307F0AE0DEF4206E50E4EF5B8
:20022D000A850A14850A1575824EC00712045290000112066FD007E50E4FF50A850A148594
:20024D000A1575824E12045290000102066FAF8274F05FFEAD0D4205E50B4205E50E4DF55E
:20026D000A850A14850A1575824EC007C00612045290000112066FD006E50B4206E50E4E7F
:20028D00F50A850A14850A1575824E12045290000112066FD007EFC454F0FF5307F0AE0B76
:2002AD00EF4206E50D4206E50E4EF50A850A14850A1575824EC00712045290000112066FAD
:2002CD00D007E50B4207E50E4FF50A850A14850A1575824E12045290000102066F7582C00D
:2002ED000201DC7582011201DC7582800201DCAF82BF02005018EF030354C0FF4307807435
:20030D00F0250F4004E50F2FFF8F820201DC22AD82AE83AFF08D828E838FF012072EFC60F3
:1A032D00188C820DBD00010EC007C006C00512025BD005D006D00780DC22F6
:20034700C2970000D296D2970000C29622C2970000C296D2970000D29622C297C29600009D
:20036700D29722C2970000D2960000D29722C297D2960000D2970000A296E433F58222AFDE
:20038700827E00C29700008F047D008EF005F08006EC2CFCED33FDD5F0F7EC235401FC2483
:2003A700FF92960000D2970EBE080040D6227F007E00C297D29600008F05ED2DFDD29700C8
:2003C70000A296E433FC4DFF0EBE080040E48F8222AF82C007120347D0078F82C00712033C
:2003E70086120375AE82D007BE010475820122851082C007120386120375AE82D007BE0139
:200407000475820222C007120347D00774014FF582120386120375AF82BF0104758203224B
:20042700AD11AE12AF13C007C006C0051203B5AC82D005D006D0078D828E838FF0EC120606
:200447008012036A12035475820022AF82C007120347D0078F82120386120375AF82BF01C2
:200467000475820122851482120386120375AF82BF010475820222851582120386120375C6
:10048700AF82BF01047582032212035475820022D2
:200497001203477582D012051F75821112051F1203541203477582D112051F120525AE827F
:2004B7007F00C007C006120361120525E58223235403FD7C00C005C00412036AD004D00539
:2004D700D006D007BD0308BC00050EBE00010FC007C006120354D006D0078E828F8322907C
:2004F700003212066FD29790003212066FC297221203477582D012051F75820712051F75FD
:20051700820012051F0203541203860204F60203B5AD82AE83AFF0C007C006C005120347B5
:200537007582D012051F75820012051F1203541203477582D112051FAA19AB1AAC1BC004A4
:20055700C003C002120525A982D002D003D0048A828B838CF0E9120680120361AA16AB1710
:20057700AC18C004C003C002120525A982D002D003D0048A828B838CF0E9120680120361EA
:20059700120525AC82D005D006D0078D828E838FF0EC12068012036A020354AE82AF837586
:2005B7001C0A751D00C007C006120780AC82AD83D006D007EDC454F0CCC4CC6CCC54F0CCA2
:2005D7006CFD751C0A751D008E828F83C005C00412074AAE82AF83D004D005EE4204EF42F0
:2005F700058C828D8322AE82AF8374F05EFC7D008C1CEDC4C51CC4540F651CC51C540FC517
:200617001C651CC51C30E30244F0F51D90000AC007C00612069BAC82AD83D006D0075306AC
:0D0637000F7F00EE2CFCEF3D8C82F583223E
:20064400AE82AF83438901758CFC758A25D28C7C007D00308D0D0CBC00010DC28D758CFC03
:1C066400758A66C3EC9EED9F40E922AE82AF83EE4F6008001EBEFF011F80F42259
:06003500E478FFF6D8FD9F
:200013007900E94400601B7A009007CA780175A000E493F2A308B8000205A0D9F4DAF275C2
:02003300A0FF2C
:1B06800020F71130F6138883A88220F509F6A8837583002280FEF280F5F02279
:1D069B00E582851CF0A4C582C0F0851DF0A4D0F025F0C583851CF0A42583F58322E5
:2006B800E51C451D60467A01E51C25E0F51CE51D334012F51DE582951CE583951D40030A6F
:2006D80080E6C3E51D13F51DE51C13F51CC3E582951CF5F0E583951D4005F58385F082C33C
:0D06F800E51D13F51DE51C13F51CDAE122CC
:200705007A10E4FBFCE58225E0F582E58333F583EB33FBEC33FCEB951CF5F0EC951D4006E0
:09072500FCABF0438201DADD2295
:20003B007800E84400600A790175A000E4F309D8FC7800E84400600C7900900001E4F0A3C3
:04005B00D8FCD9FAFA
:0D0006007581201207B8E582600302000337
:1C072E0020F71430F6148883A88220F507E6A88375830022E280F7E49322E022DA
:20074A00C2D5E58330E70DD2D5E4C39582F582E49583F583E51D30E70BE4C3951CF51CE4AB
:16076A00951DF51D1206B830D50BE4C39582F582E49583F583220A
:20078000C2D5E58330E70DD2D5E4C39582F582E49583F583E51D30E70DB2D5E4C3951CF5EC
:1807A0001CE4951DF51D12070530D50BE4C39582F582E49583F5832284
:0407B8007582002224
:00000001FF
