:03000000020006F5
:03006E000200038A
:0300030002007187
:100071001204EA9008C375F0801206CB1206A29012
:1000810008CA75F0801206CB751308751400751532
:10009100407582D012023D7582D01203E3AF827E99
:1000A1000075180A8E198F828E83C007C006120848
:1000B10087AC82D006D00775180A7519008F828E19
:1000C10083C004120851AE82D004752605758200E2
:1000D100C006C0041206A8D004D006850A8285098C
:1000E10027850828C006C0041206F69008D175F0CD
:1000F100801206CB7526057582011206A8D004D0A0
:1001010006850C82850D29850E2AC006C0041207BA
:100111004D9008D575F0801206CBD00474302CF5C3
:10012100821205C4D00674302EF5821205C4020075
:010131008944
:1008C300486F72613A2000446174613A200020202D
:0408D30054002000AD
:10013200C2A00000D2A1D2A00000C2A122C2A0008F
:1001420000C2A1D2A00000D2A122C2A0C2A100007E
:10015200D2A022C2A00000D2A10000D2A022C2A03E
:10016200D2A10000D2A00000A2A1E433F58222AF06
:10017200827E00C2A000008F047D008EF005F08018
:1001820006EC2CFCED33FDD5F0F7EC235401FC24F6
:10019200FF92A10000D2A00EBE080040D6227F002E
:1001A2007E00C2A0D2A100008F05ED2DFDD2A000DD
:1001B20000A2A1E433FC4DFF0EBE080040E48F8292
:1001C20022AF82C007120132D0078F82C00712010C
:1001D20071120160AE82D007BE01047582012285D0
:1001E2000F82C007120171120160AE82D007BE01F8
:1001F2000475820222C007120132D00774014FF542
:1002020082120171120160AF82BF01047582032262
:10021200AD10AE11AF12C007C006C0051201A0ACEE
:1002220082D005D006D0078D828E838FF0EC120724
:10023200A412015512013F75820022AF82C007123B
:100242000132D0078F82C007120171120160AE82A3
:10025200D007BE010475820122758200C007120117
:1002620071120160AE82D007BE010475820222C003
:1002720007120132D00774014FF582120171120187
:1002820060AF82BF010475820322AD13AE14AF15B5
:10029200C007C006C0051201A0AC82D005D006D0AE
:1002A200078D828E838FF0EC1207A4C007C006C0B0
:1002B2000512014CD005D006D00774012DFAE43E98
:1002C200FB8F04C007C006C005C004C003C00212F1
:1002D20001A0A982D002D003D0048A828B838CF041
:1002E200E91207A412014CD005D006D00774022DE2
:1002F200FAE43EFB8F04C007C006C005C004C00379
:10030200C0021201A0A982D002D003D0048A828B3B
:10031200838CF0E91207A412014CD005D006D00755
:1003220074032DFAE43EFB8F04C007C006C005C06B
:1003320004C003C0021201A0A982D002D003D004DB
:100342008A828B838CF0E91207A412014CD005D06B
:1003520006D00774042DFAE43EFB8F04C007C006E2
:10036200C005C004C003C0021201A0A982D002D0FD
:1003720003D0048A828B838CF0E91207A412014C09
:10038200D005D006D00774052DFAE43EFB8F04C0D9
:1003920007C006C005C004C003C0021201A0A982A2
:1003A200D002D003D0048A828B838CF0E91207A496
:1003B20012014CD005D00674062DFDE43EFEC006A7
:1003C200C0051201A0AC82D005D006D0078D828E66
:1003D200838FF0EC1207A412015512013F758200BF
:1003E20022AF82C007120132D0078F82C0071201EA
:1003F20071120160AE82D007BE01047582012275BE
:100402008211C007120171120160AE82D007BE01D3
:100412000475820222C007120132D00774014FF51F
:1004220082120171120160AF82BF01047582032240
:100432001201A0AF82C00712014C1201A0AE82C00D
:100442000612015512013FD006D007EE23235403B2
:10045200FEBE03010F8F8222AF82C007120132D08B
:10046200078F82120171120160AF82BF010475828F
:100472000122851682120171120160AF82BF01044E
:1004820075820222851782120171120160AF82BF4A
:1004920001047582032212013F75820022AE82AFEF
:1004A20083AC894304018C89758CFC758A66D28C75
:1004B2007C007D00308D0D0CBC00010DC28D758C51
:1004C200FC758A66C3EC9EED9F40E922AE82AF8343
:0D04D200EE4F6008001EBEFF011F80F422E7
:0F005F007521007522017523027524047525088B
:1004DF003000047525082275250022901388120418
:1004EF00CE75820212050E75822812050E75820CCA
:1004FF0012050E75820112050E75828002050EAF70
:10050F00828F055305F07E00AB247C00ED4203EE95
:10051F004204A9257A00E94203EA42048B2185218E
:10052F001685211775824EC007C006C00512045AE2
:10053F009000011204CED005D006AB257C00EB4213
:10054F0005EC42068D2185211685211775824E12E5
:10055F00045A9000011204CED007EFC454F0FF33B9
:10056F0095E05307F07E00AC247D00EF4204EE428D
:10057F0005AA257B00EA4204EB42058C2185211652
:10058F0085211775824EC007C00612045A900001CC
:10059F001204CED006D007AC257D00EC4207ED4209
:1005AF00068F2185211685211775824E12045A90C8
:1005BF0000010204CEAF828F055305F07E00AB24FD
:1005CF007C00ED4203EE4204A9227A00E94203EADD
:1005DF004204A9257A00E94203EA42048B218521CE
:1005EF001685211775824EC007C006C00512045A22
:1005FF009000011204CED005D006AB227C00EB4256
:10060F0005EC4206AB257C00EB4205EC42068D2142
:10061F0085211685211775824E12045A90000112FA
:10062F0004CED007EFC454F0FF3395E05307F07EAC
:10063F0000AC227D00EF4204EE4205AA247B00EAC3
:10064F004204EB4205AA257B00EA4204EB42058CEB
:10065F002185211685211775824EC007C006120409
:10066F005A9000011204CED006D007AC227D00ECC8
:10067F004207ED4206AC257D00EC4207ED42068FA6
:10068F002185211685211775824E12045A9000017B
:10069F000204CE7582C002050EAF82BF0200501B4E
:1006AF00EF030354C0FF3395E043078074F0252612
:1006BF004004E5262FFF8F8202050E22AD82AE8306
:1006CF00AFF08D828E838FF0120835FC60188C820C
:1006DF000DBD00010EC007C006C0051205C4D00530
:1006EF00D006D00780DC22E582FFC4540F2430F5FA
:1006FF0082C0071205C4D007740F5F2430F5821231
:10070F0005C475823A1205C4E527C4540F2430F589
:10071F00821205C4AF27740F5F2430F5821205C40F
:10072F0075823A1205C4E528C4540F2430F582129D
:10073F0005C4AF28740F5F2430F5820205C4E5822B
:10074F00FFC4540F2430F582C0071205C4D00774BC
:10075F000F5F2430F5821205C475822F1205C4E590
:10076F0029C4540F2430F5821205C4AF29740F5FCA
:10077F002430F5821205C475822F1205C4E52AC4F0
:10078F00540F2430F5821205C4AF2A740F5F243042
:05079F00F5820205C413
:06003500E478FFF6D8FD9F
:100013007900E94400601B7A009008D7780175A045
:1000230000E493F2A308B8000205A0D9F4DAF2754C
:02003300A0FF2C
:1007A40020F71130F6138883A88220F509F6A88370
:1007B4007583002280FEF280F5F022E51845196069
:1007C400467A01E51825E0F518E519334012F519C4
:1007D400E5829518E583951940030A80E6C3E51977
:1007E40013F519E51813F518C3E5829518F5F0E526
:1007F4008395194005F58385F082C3E51913F5192E
:08080400E51813F518DAE122F2
:10003B007800E84400600A790175A000E4F309D860
:10004B00FC7800E84400600C7900900001E4F0A318
:04005B00D8FCD9FAFA
:10080C007A10E4FBFCE58225E0F582E58333F58381
:10081C00EB33FBEC33FCEB9518F5F0EC951940063B
:09082C00FCABF0438201DADD228D
:0D00060075812A1208BFE582600302000325
:1008350020F71430F6148883A88220F507E6A883EC
:1008450075830022E280F7E49322E022C2D5E58396
:1008550030E70DD2D5E4C39582F582E49583F5831F
:10086500E51930E70BE4C39518F518E49519F51962
:100875001207BF30D50BE4C39582F582E49583F565
:100885008322C2D5E58330E70DD2D5E4C39582F541
:1008950082E49583F583E51930E70DB2D5E4C39578
:1008A50018F518E49519F51912080C30D50BE4C3A1
:0E08B5009582F582E49583F5832275820022F8
:00000001FF
