:03000000020006F5
:03006E000200038A
:0300030002012CCB
:20007100D2A2D2A3900002120854C2A322C2A290000512085420A3FDD2A290000212085464
:20009100C2A222C2A2900002120854C2A3900002120854D2A2900002120854D2A322AF82C4
:2000B1007E00C2A2EF30E004D2A38002C2A3900003C007C006120854D006D007EFC313FFEF
:2000D100D2A2900003C007C006120854D006D0070EBE080040CC221200717582401200AFE3
:2000F10012007E1200941200717582C01200AF12007E7F007582FFC0071200AF12007ED0D1
:20011100070FBF060040ED12009412007175828F1200AF12007E02009400221201FE900964
:200131008475F0801203DF1203B690098B75F0801203DF12012A1200E875250875260075A0
:2001510027407582D01205C37582D0120769AF827E0075190A8E1A8F828E83C007C006128D
:200171000948AC82D006D00775190A751A008F828E83C004120912AE82D00475140575827F
:2001910000C006C0041203BCD004D006850A82850915850816C006C00412040A90099275A8
:2001B100F0801203DF7514057582011203BCD004D006850C82850D17850E18C006C00412C6
:2001D100046190099675F0801203DFD00474302CF5821202D8D00674302EF5821202D8028D
:0201F100014AC1
:14098400486F72613A2000446174613A2000202054002000F3
:0F005F00750F00751001751102751204751308E5
:2001F300300004751308227513002290138812085475820212022275822812022275820C3C
:20021300120222758201120222758280020222AF828F055305F07E00AB127C00ED4203EEE6
:200233004204A9137A00E94203EA42048B0F850F28850F2975824EC007C006C0051207E02E
:20025300900001120854D005D006AB137C00EB4205EC42068D0F850F28850F2975824E12D5
:2002730007E0900001120854D007EFC454F0FF3395E05307F07E00AC127D00EF4204EE42A8
:2002930005AA137B00EA4204EB42058C0F850F28850F2975824EC007C0061207E09000013C
:2002B300120854D006D007AC137D00EC4207ED42068F0F850F28850F2975824E1207E09085
:2002D3000001020854AF828F055305F07E00AB127C00ED4203EE4204A9107A00E94203EA37
:2002F3004204A9137A00E94203EA42048B0F850F28850F2975824EC007C006C0051207E06E
:20031300900001120854D005D006AB107C00EB4205EC4206AB137C00EB4205EC42068D0F47
:20033300850F28850F2975824E1207E0900001120854D007EFC454F0FF3395E05307F07EB7
:2003530000AC107D00EF4204EE4205AA127B00EA4204EB4205AA137B00EA4204EB42058C28
:200373000F850F28850F2975824EC007C0061207E0900001120854D006D007AC107D00EC46
:200393004207ED4206AC137D00EC4207ED42068F0F850F28850F2975824E1207E090000140
:2003B3000208547582C0020222AF82BF0200501BEF030354C0FF3395E043078074F025147B
:2003D3004004E5142FFF8F8202022222AD82AE83AFF08D828E838FF01208F6FC60188C8216
:2003F3000DBD00010EC007C006C0051202D8D005D006D00780DC22E582FFC4540F2430F5FD
:2004130082C0071202D8D007740F5F2430F5821202D875823A1202D8E515C4540F2430F59D
:20043300821202D8AF15740F5F2430F5821202D875823A1202D8E516C4540F2430F58212C2
:2004530002D8AF16740F5F2430F5820202D8E582FFC4540F2430F582C0071202D8D007740B
:200473000F5F2430F5821202D875822F1202D8E517C4540F2430F5821202D8AF17740F5FB0
:200493002430F5821202D875822F1202D8E518C4540F2430F5821202D8AF18740F5F2430A8
:0504B300F5820202D8F1
:2004B800C2A00000D2A1D2A00000C2A122C2A00000C2A1D2A00000D2A122C2A0C2A10000C7
:2004D800D2A022C2A00000D2A10000D2A022C2A0D2A10000D2A00000A2A1E433F58222AF1E
:2004F800827E00C2A000008F047D008EF005F08006EC2CFCED33FDD5F0F7EC235401FC2408
:20051800FF92A10000D2A00EBE080040D6227F007E00C2A0D2A100008F05ED2DFDD2A00024
:2005380000A2A1E433FC4DFF0EBE080040E48F8222AF82C0071204B8D0078F82C00712044B
:20055800F71204E6AE82D007BE010475820122852182C0071204F71204E6AE82D007BE01EE
:200578000475820222C0071204B8D00774014FF5821204F71204E6AF82BF01047582032283
:20059800AD22AE23AF24C007C006C005120526AC82D005D006D0078D828E838FF0EC1208EC
:2005B800651204DB1204C575820022AF82C0071204B8D0078F82C0071204F71204E6AE822B
:2005D800D007BE010475820122758200C0071204F71204E6AE82D007BE010475820222C0E3
:2005F800071204B8D00774014FF5821204F71204E6AF82BF010475820322AD25AE26AF2766
:20061800C007C006C005120526AC82D005D006D0078D828E838FF0EC120865C007C006C02C
:20063800051204D2D005D006D00774012DFAE43EFB8F04C007C006C005C004C003C002123A
:200658000526A982D002D003D0048A828B838CF0E91208651204D2D005D006D00774022DA8
:20067800FAE43EFB8F04C007C006C005C004C003C002120526A982D002D003D0048A828BA5
:20069800838CF0E91208651204D2D005D006D00774032DFAE43EFB8F04C007C006C005C011
:2006B80004C003C002120526A982D002D003D0048A828B838CF0E91208651204D2D005D02D
:2006D80006D00774042DFAE43EFB8F04C007C006C005C004C003C002120526A982D002D031
:2006F80003D0048A828B838CF0E91208651204D2D005D006D00774052DFAE43EFB8F04C093
:2007180007C006C005C004C003C002120526A982D002D003D0048A828B838CF0E912086507
:200738001204D2D005D00674062DFDE43EFEC006C005120526AC82D005D006D0078D828E35
:20075800838FF0EC1208651204DB1204C575820022AF82C0071204B8D0078F82C0071204A4
:20077800F71204E6AE82D007BE010475820122758211C0071204F71204E6AE82D007BE01EC
:200798000475820222C0071204B8D00774014FF5821204F71204E6AF82BF01047582032261
:2007B800120526AF82C0071204D2120526AE82C0061204DB1204C5D006D007EE23235403CD
:2007D800FEBE03010F8F8222AF82C0071204B8D0078F821204F71204E6AF82BF010475825C
:2007F80001228528821204F71204E6AF82BF0104758202228529821204F71204E6AF82BF4D
:0D0818000104758203221204C575820022BE
:20082500AE82AF83AC894304018C89758CFC758A66D28C7C007D00308D0D0CBC00010DC2A4
:200845008D758CFC758A66C3EC9EED9F40E922AE82AF83EE4F6008001EBEFF011F80F422E8
:06003500E478FFF6D8FD9F
:200013007900E94400601B7A00900998780175A000E493F2A308B8000205A0D9F4DAF275F2
:02003300A0FF2C
:1B08650020F71130F6138883A88220F509F6A8837583002280FEF280F5F02292
:20088000E519451A60467A01E51925E0F519E51A334012F51AE5829519E583951A40030ABD
:2008A00080E6C3E51A13F51AE51913F519C3E5829519F5F0E583951A4005F58385F082C384
:0D08C000E51A13F51AE51913F519DAE1220E
:20003B007800E84400600A790175A000E4F309D8FC7800E84400600C7900900001E4F0A3C3
:04005B00D8FCD9FAFA
:2008CD007A10E4FBFCE58225E0F582E58333F583EB33FBEC33FCEB9519F5F0EC951A40061D
:0908ED00FCABF0438201DADD22CC
:0D000600758129120980E582600302000364
:1C08F60020F71430F6148883A88220F507E6A88375830022E280F7E49322E02211
:20091200C2D5E58330E70DD2D5E4C39582F582E49583F583E51A30E70BE4C39519F519E4EA
:16093200951AF51A12088030D50BE4C39582F582E49583F583227C
:20094800C2D5E58330E70DD2D5E4C39582F582E49583F583E51A30E70DB2D5E4C39519F528
:1809680019E4951AF51A1208CD30D50BE4C39582F582E49583F58322FA
:04098000758200225A
:00000001FF
