:03000000020006F5
:03005F0002000399
:03000300020150A7
:200062001201F07582D012022F75820712022F75820012022F0201FDE582FF24F650030221
:200082000146EF240A83F582EF240E83F583E473A6B7C8D8E8F80818283800000000000030
:2000A20001010101C2A5C2A4C2A1C2A2C2A3C2A6D2A7020146D2A5C2A4C2A1D2A2D2A3D21C
:2000C200A6D2A7020146C2A5C2A4D2A1C2A2C2A3D2A6C2A7806EC2A5C2A4C2A1C2A2D2A3D5
:2000E200D2A6C2A7805ED2A5C2A4C2A1D2A2D2A3C2A6C2A7804EC2A5D2A4C2A1C2A2D2A35E
:20010200C2A6C2A7803EC2A5D2A4C2A1C2A2C2A3C2A6C2A7802EC2A5C2A4C2A1D2A2D2A3AD
:20012200D2A6D2A7801EC2A5C2A4C2A1C2A2C2A3C2A6C2A7800EC2A5C2A4C2A1C2A2D2A3CD
:20014200C2A6C2A7E5186003C2A022D2A02220901E7F0074015FF5188F82C00712007A9032
:2001620001F41201B0D0070FBF0A0040E680DF7582D01204A1751308751400751540758239
:20018200D01202FBE582FE7015E508C4540FF58275180112007A9003841201B080B0751858
:0E01A200008E8212007A9003E81201B080A055
:2001B000AE82AF83AC894304018C89758CFC758A66D28C7C007D00308D0D0CBC00010DC220
:2001D0008D758CFC758A66C3EC9EED9F40E922AE82AF83EE4F6008001EBEFF011F80F42264
:2001F000C2970000D296D2970000C29622C2970000C296D2970000D29622C297C2960000F6
:20021000D29722C2970000D2960000D29722C297D2960000D2970000A296E433F58222AF36
:20023000827E00C29700008F047D008EF005F08006EC2CFCED33FDD5F0F7EC235401FC24DB
:20025000FF92960000D2970EBE080040D6227F007E00C297D29600008F05ED2DFDD2970020
:2002700000A296E433FC4DFF0EBE080040E48F8222AF82C0071201F0D0078F82C0071202EE
:200290002F12021EAE82D007BE010475820122850F82C00712022F12021EAE82D007BE01F1
:2002B0000475820222C0071201F0D00774014FF58212022F12021EAF82BF010475820322AD
:2002D000AD10AE11AF12C007C006C00512025EAC82D005D006D0078D828E838FF0EC1205BB
:2002F000601202131201FD75820022AF82C0071201F0D0078F82C00712022F12021EAE82EF
:20031000D007BE010475820122758200C00712022F12021EAE82D007BE010475820222C041
:20033000071201F0D00774014FF58212022F12021EAF82BF010475820322AD13AE14AF15C5
:20035000C007C006C00512025EAC82D005D006D0078D828E838FF0EC120560C007C006C0CA
:200370000512020AD005D006D00774012DFAE43EFB8F04C007C006C005C004C003C00212CF
:20039000025EA982D002D003D0048A828B838CF0E912056012020AD005D006D00774022D10
:2003B000FAE43EFB8F04C007C006C005C004C003C00212025EA982D002D003D0048A828B3B
:2003D000838CF0E912056012020AD005D006D00774032DFAE43EFB8F04C007C006C005C0AE
:2003F00004C003C00212025EA982D002D003D0048A828B838CF0E912056012020AD005D095
:2004100006D00774042DFAE43EFB8F04C007C006C005C004C003C00212025EA982D002D0C6
:2004300003D0048A828B838CF0E912056012020AD005D006D00774052DFAE43EFB8F04C02F
:2004500007C006C005C004C003C00212025EA982D002D003D0048A828B838CF0E9120560A5
:2004700012020AD005D00674062DFDE43EFEC006C00512025EAC82D005D006D0078D828E95
:20049000838FF0EC1205601202131201FD75820022AF82C0071201F0D0078F82C0071202D9
:2004B0002F12021EAE82D007BE010475820122758211C00712022F12021EAE82D007BE01DD
:2004D0000475820222C0071201F0D00774014FF58212022F12021EAF82BF0104758203228B
:2004F00012025EAF82C00712020A12025EAE82C00612020A1202131201FDD006D007EE23E9
:20051000235403FEBE03010F8F8222AF82C0071201F0D0078F8212022F12021EAF82BF0106
:20053000047582012285168212022F12021EAF82BF01047582022285178212022F12021E58
:10055000AF82BF0104758203221201FD7582002261
:06003500E478FFF6D8FD9F
:200013007900E94400601B7A0090057F780175A000E493F2A308B8000205A0D9F4DAF2750F
:02003300A0FF2C
:1B05600020F71130F6138883A88220F509F6A8837583002280FEF280F5F0229A
:20003B007800E84400600A790175A000E4F309D8FC7800E84400600C7900900001E4F0A3C3
:04005B00D8FCD9FAFA
:0D00060075811812057BE58260030200037E
:04057B007582002263
:00000001FF
